{
  "_format": "hh-sol-artifact-1",
  "contractName": "MicroDonation",
  "sourceName": "contracts/MicroDonation.sol",
  "abi": [
    {
      "anonymous": false,
      "inputs": [
        {
          "indexed": true,
          "internalType": "address",
          "name": "donor",
          "type": "address"
        },
        {
          "indexed": true,
          "internalType": "address",
          "name": "creator",
          "type": "address"
        },
        {
          "indexed": false,
          "internalType": "uint256",
          "name": "amount",
          "type": "uint256"
        },
        {
          "indexed": false,
          "internalType": "string",
          "name": "message",
          "type": "string"
        }
      ],
      "name": "DonationReceived",
      "type": "event"
    },
    {
      "inputs": [
        {
          "internalType": "address",
          "name": "creator",
          "type": "address"
        },
        {
          "internalType": "string",
          "name": "message",
          "type": "string"
        }
      ],
      "name": "donate",
      "outputs": [],
      "stateMutability": "payable",
      "type": "function"
    }
  ],
  "bytecode": "0x608060405234801561001057600080fd5b506104b2806100206000396000f3fe60806040526004361061001e5760003560e01c8063429c14d714610023575b600080fd5b61003d600480360381019061003891906102ec565b61003f565b005b60003411610082576040517f08c379a0000000000000000000000000000000000000000000000000000000008152600401610079906103a5565b60405180910390fd5b8173ffffffffffffffffffffffffffffffffffffffff166108fc349081150290604051600060405180830381858888f193505050501580156100c8573d6000803e3d6000fd5b508173ffffffffffffffffffffffffffffffffffffffff163373ffffffffffffffffffffffffffffffffffffffff167f29c44daa8c89f37633a27df5ceaeab866a06ece06b7f58cce4c913b6cf3c7b44348460405161012892919061044c565b60405180910390a35050565b6000604051905090565b600080fd5b600080fd5b600073ffffffffffffffffffffffffffffffffffffffff82169050919050565b600061017382610148565b9050919050565b61018381610168565b811461018e57600080fd5b50565b6000813590506101a08161017a565b92915050565b600080fd5b600080fd5b6000601f19601f8301169050919050565b7f4e487b7100000000000000000000000000000000000000000000000000000000600052604160045260246000fd5b6101f9826101b0565b810181811067ffffffffffffffff82111715610218576102176101c1565b5b80604052505050565b600061022b610134565b905061023782826101f0565b919050565b600067ffffffffffffffff821115610257576102566101c1565b5b610260826101b0565b9050602081019050919050565b82818337600083830152505050565b600061028f61028a8461023c565b610221565b9050828152602081018484840111156102ab576102aa6101ab565b5b6102b684828561026d565b509392505050565b600082601f8301126102d3576102d26101a6565b5b81356102e384826020860161027c565b91505092915050565b600080604083850312156103035761030261013e565b5b600061031185828601610191565b925050602083013567ffffffffffffffff81111561033257610331610143565b5b61033e858286016102be565b9150509250929050565b600082825260208201905092915050565b7f446f6e6174696f6e206d7573742062652067726561746572207468616e203000600082015250565b600061038f601f83610348565b915061039a82610359565b602082019050919050565b600060208201905081810360008301526103be81610382565b9050919050565b6000819050919050565b6103d8816103c5565b82525050565b600081519050919050565b60005b838110156104075780820151818401526020810190506103ec565b60008484015250505050565b600061041e826103de565b6104288185610348565b93506104388185602086016103e9565b610441816101b0565b840191505092915050565b600060408201905061046160008301856103cf565b81810360208301526104738184610413565b9050939250505056fea264697066735822122087f30964a6ec2a3ecd2119d81b9c36c9f6f82ff8a0202cfb90fc497d3fe45dd764736f6c63430008120033",
  "linkReferences": {},
  "deployedLinkReferences": {}
}